{
  "contractName": "LiquidityPool",
  "abi": [
    {
      "inputs": [
        {
          "internalType": "address",
          "name": "_underlyingToken",
          "type": "address"
        },
        {
          "internalType": "address",
          "name": "_governanceToken",
          "type": "address"
        }
      ],
      "stateMutability": "nonpayable",
      "type": "constructor"
    },
    {
      "anonymous": false,
      "inputs": [
        {
          "indexed": true,
          "internalType": "address",
          "name": "owner",
          "type": "address"
        },
        {
          "indexed": true,
          "internalType": "address",
          "name": "spender",
          "type": "address"
        },
        {
          "indexed": false,
          "internalType": "uint256",
          "name": "value",
          "type": "uint256"
        }
      ],
      "name": "Approval",
      "type": "event"
    },
    {
      "anonymous": false,
      "inputs": [
        {
          "indexed": true,
          "internalType": "address",
          "name": "from",
          "type": "address"
        },
        {
          "indexed": true,
          "internalType": "address",
          "name": "to",
          "type": "address"
        },
        {
          "indexed": false,
          "internalType": "uint256",
          "name": "value",
          "type": "uint256"
        }
      ],
      "name": "Transfer",
      "type": "event"
    },
    {
      "inputs": [],
      "name": "REWARD_PER_BLOCK",
      "outputs": [
        {
          "internalType": "uint256",
          "name": "",
          "type": "uint256"
        }
      ],
      "stateMutability": "view",
      "type": "function"
    },
    {
      "inputs": [
        {
          "internalType": "address",
          "name": "owner",
          "type": "address"
        },
        {
          "internalType": "address",
          "name": "spender",
          "type": "address"
        }
      ],
      "name": "allowance",
      "outputs": [
        {
          "internalType": "uint256",
          "name": "",
          "type": "uint256"
        }
      ],
      "stateMutability": "view",
      "type": "function"
    },
    {
      "inputs": [
        {
          "internalType": "address",
          "name": "spender",
          "type": "address"
        },
        {
          "internalType": "uint256",
          "name": "amount",
          "type": "uint256"
        }
      ],
      "name": "approve",
      "outputs": [
        {
          "internalType": "bool",
          "name": "",
          "type": "bool"
        }
      ],
      "stateMutability": "nonpayable",
      "type": "function"
    },
    {
      "inputs": [
        {
          "internalType": "address",
          "name": "account",
          "type": "address"
        }
      ],
      "name": "balanceOf",
      "outputs": [
        {
          "internalType": "uint256",
          "name": "",
          "type": "uint256"
        }
      ],
      "stateMutability": "view",
      "type": "function"
    },
    {
      "inputs": [
        {
          "internalType": "address",
          "name": "",
          "type": "address"
        }
      ],
      "name": "checkpoints",
      "outputs": [
        {
          "internalType": "uint256",
          "name": "",
          "type": "uint256"
        }
      ],
      "stateMutability": "view",
      "type": "function"
    },
    {
      "inputs": [],
      "name": "decimals",
      "outputs": [
        {
          "internalType": "uint8",
          "name": "",
          "type": "uint8"
        }
      ],
      "stateMutability": "view",
      "type": "function"
    },
    {
      "inputs": [
        {
          "internalType": "address",
          "name": "spender",
          "type": "address"
        },
        {
          "internalType": "uint256",
          "name": "subtractedValue",
          "type": "uint256"
        }
      ],
      "name": "decreaseAllowance",
      "outputs": [
        {
          "internalType": "bool",
          "name": "",
          "type": "bool"
        }
      ],
      "stateMutability": "nonpayable",
      "type": "function"
    },
    {
      "inputs": [],
      "name": "governanceToken",
      "outputs": [
        {
          "internalType": "contract GovernanceToken",
          "name": "",
          "type": "address"
        }
      ],
      "stateMutability": "view",
      "type": "function"
    },
    {
      "inputs": [
        {
          "internalType": "address",
          "name": "spender",
          "type": "address"
        },
        {
          "internalType": "uint256",
          "name": "addedValue",
          "type": "uint256"
        }
      ],
      "name": "increaseAllowance",
      "outputs": [
        {
          "internalType": "bool",
          "name": "",
          "type": "bool"
        }
      ],
      "stateMutability": "nonpayable",
      "type": "function"
    },
    {
      "inputs": [],
      "name": "name",
      "outputs": [
        {
          "internalType": "string",
          "name": "",
          "type": "string"
        }
      ],
      "stateMutability": "view",
      "type": "function"
    },
    {
      "inputs": [],
      "name": "symbol",
      "outputs": [
        {
          "internalType": "string",
          "name": "",
          "type": "string"
        }
      ],
      "stateMutability": "view",
      "type": "function"
    },
    {
      "inputs": [],
      "name": "totalSupply",
      "outputs": [
        {
          "internalType": "uint256",
          "name": "",
          "type": "uint256"
        }
      ],
      "stateMutability": "view",
      "type": "function"
    },
    {
      "inputs": [
        {
          "internalType": "address",
          "name": "recipient",
          "type": "address"
        },
        {
          "internalType": "uint256",
          "name": "amount",
          "type": "uint256"
        }
      ],
      "name": "transfer",
      "outputs": [
        {
          "internalType": "bool",
          "name": "",
          "type": "bool"
        }
      ],
      "stateMutability": "nonpayable",
      "type": "function"
    },
    {
      "inputs": [
        {
          "internalType": "address",
          "name": "sender",
          "type": "address"
        },
        {
          "internalType": "address",
          "name": "recipient",
          "type": "address"
        },
        {
          "internalType": "uint256",
          "name": "amount",
          "type": "uint256"
        }
      ],
      "name": "transferFrom",
      "outputs": [
        {
          "internalType": "bool",
          "name": "",
          "type": "bool"
        }
      ],
      "stateMutability": "nonpayable",
      "type": "function"
    },
    {
      "inputs": [],
      "name": "underlyingToken",
      "outputs": [
        {
          "internalType": "contract UnderlyingToken",
          "name": "",
          "type": "address"
        }
      ],
      "stateMutability": "view",
      "type": "function"
    },
    {
      "inputs": [
        {
          "internalType": "uint256",
          "name": "_amountUnderlyingTokens",
          "type": "uint256"
        }
      ],
      "name": "deposit",
      "outputs": [],
      "stateMutability": "nonpayable",
      "type": "function"
    },
    {
      "inputs": [
        {
          "internalType": "uint256",
          "name": "_amountLPTokens",
          "type": "uint256"
        }
      ],
      "name": "withdraw",
      "outputs": [],
      "stateMutability": "nonpayable",
      "type": "function"
    }
  ],
  "bytecode": "0x60806040523480156200001157600080fd5b506040516200235938038062002359833981810160405281019062000037919062000228565b6040518060400160405280600f81526020017f4c697175696469747920546f6b656e00000000000000000000000000000000008152506040518060400160405280600381526020017f4c505400000000000000000000000000000000000000000000000000000000008152508160039080519060200190620000bb92919062000161565b508060049080519060200190620000d492919062000161565b50505080600760006101000a81548173ffffffffffffffffffffffffffffffffffffffff021916908373ffffffffffffffffffffffffffffffffffffffff16021790555081600660006101000a81548173ffffffffffffffffffffffffffffffffffffffff021916908373ffffffffffffffffffffffffffffffffffffffff16021790555050506200031c565b8280546200016f906200029d565b90600052602060002090601f016020900481019282620001935760008555620001df565b82601f10620001ae57805160ff1916838001178555620001df565b82800160010185558215620001df579182015b82811115620001de578251825591602001919060010190620001c1565b5b509050620001ee9190620001f2565b5090565b5b808211156200020d576000816000905550600101620001f3565b5090565b600081519050620002228162000302565b92915050565b600080604083850312156200023c57600080fd5b60006200024c8582860162000211565b92505060206200025f8582860162000211565b9150509250929050565b600062000276826200027d565b9050919050565b600073ffffffffffffffffffffffffffffffffffffffff82169050919050565b60006002820490506001821680620002b657607f821691505b60208210811415620002cd57620002cc620002d3565b5b50919050565b7f4e487b7100000000000000000000000000000000000000000000000000000000600052602260045260246000fd5b6200030d8162000269565b81146200031957600080fd5b50565b61202d806200032c6000396000f3fe608060405234801561001057600080fd5b506004361061010b5760003560e01c806370a08231116100a2578063a9059cbb11610071578063a9059cbb146102d0578063b6b55f2514610300578063dbb51d6e1461031c578063dd62ed3e1461034c578063f96dae0a1461037c5761010b565b806370a082311461023457806395d89b4114610264578063975532dc14610282578063a457c2d7146102a05761010b565b80632495a599116100de5780632495a599146101ac5780632e1a7d4d146101ca578063313ce567146101e657806339509351146102045761010b565b806306fdde0314610110578063095ea7b31461012e57806318160ddd1461015e57806323b872dd1461017c575b600080fd5b61011861039a565b6040516101259190611870565b60405180910390f35b6101486004803603810190610143919061151d565b61042c565b604051610155919061181f565b60405180910390f35b61016661044a565b60405161017391906119f2565b60405180910390f35b610196600480360381019061019191906114ce565b610454565b6040516101a3919061181f565b60405180910390f35b6101b4610555565b6040516101c19190611855565b60405180910390f35b6101e460048036038101906101df9190611582565b61057b565b005b6101ee61068c565b6040516101fb9190611a0d565b60405180910390f35b61021e6004803603810190610219919061151d565b610695565b60405161022b919061181f565b60405180910390f35b61024e60048036038101906102499190611469565b610741565b60405161025b91906119f2565b60405180910390f35b61026c610789565b6040516102799190611870565b60405180910390f35b61028a61081b565b60405161029791906119f2565b60405180910390f35b6102ba60048036038101906102b5919061151d565b610820565b6040516102c7919061181f565b60405180910390f35b6102ea60048036038101906102e5919061151d565b610914565b6040516102f7919061181f565b60405180910390f35b61031a60048036038101906103159190611582565b610932565b005b61033660048036038101906103319190611469565b610a85565b60405161034391906119f2565b60405180910390f35b61036660048036038101906103619190611492565b610a9d565b60405161037391906119f2565b60405180910390f35b610384610b24565b604051610391919061183a565b60405180910390f35b6060600380546103a990611bf8565b80601f01602080910402602001604051908101604052809291908181526020018280546103d590611bf8565b80156104225780601f106103f757610100808354040283529160200191610422565b820191906000526020600020905b81548152906001019060200180831161040557829003601f168201915b5050505050905090565b6000610440610439610b4a565b8484610b52565b6001905092915050565b6000600254905090565b6000610461848484610d1d565b6000600160008673ffffffffffffffffffffffffffffffffffffffff1673ffffffffffffffffffffffffffffffffffffffff16815260200190815260200160002060006104ac610b4a565b73ffffffffffffffffffffffffffffffffffffffff1673ffffffffffffffffffffffffffffffffffffffff1681526020019081526020016000205490508281101561052c576040517f08c379a000000000000000000000000000000000000000000000000000000000815260040161052390611932565b60405180910390fd5b61054985610538610b4a565b85846105449190611af4565b610b52565b60019150509392505050565b600660009054906101000a900473ffffffffffffffffffffffffffffffffffffffff1681565b8061058533610741565b10156105c6576040517f08c379a00000000000000000000000000000000000000000000000000000000081526004016105bd90611912565b60405180910390fd5b6105cf33610f9c565b600660009054906101000a900473ffffffffffffffffffffffffffffffffffffffff1673ffffffffffffffffffffffffffffffffffffffff1663a9059cbb33836040518363ffffffff1660e01b815260040161062c9291906117f6565b602060405180830381600087803b15801561064657600080fd5b505af115801561065a573d6000803e3d6000fd5b505050506040513d601f19601f8201168201806040525081019061067e9190611559565b5061068933826110fd565b50565b60006012905090565b60006107376106a2610b4a565b8484600160006106b0610b4a565b73ffffffffffffffffffffffffffffffffffffffff1673ffffffffffffffffffffffffffffffffffffffff16815260200190815260200160002060008873ffffffffffffffffffffffffffffffffffffffff1673ffffffffffffffffffffffffffffffffffffffff168152602001908152602001600020546107329190611a44565b610b52565b6001905092915050565b60008060008373ffffffffffffffffffffffffffffffffffffffff1673ffffffffffffffffffffffffffffffffffffffff168152602001908152602001600020549050919050565b60606004805461079890611bf8565b80601f01602080910402602001604051908101604052809291908181526020018280546107c490611bf8565b80156108115780601f106107e657610100808354040283529160200191610811565b820191906000526020600020905b8154815290600101906020018083116107f457829003601f168201915b5050505050905090565b600181565b6000806001600061082f610b4a565b73ffffffffffffffffffffffffffffffffffffffff1673ffffffffffffffffffffffffffffffffffffffff16815260200190815260200160002060008573ffffffffffffffffffffffffffffffffffffffff1673ffffffffffffffffffffffffffffffffffffffff168152602001908152602001600020549050828110156108ec576040517f08c379a00000000000000000000000000000000000000000000000000000000081526004016108e3906119b2565b60405180910390fd5b6109096108f7610b4a565b8585846109049190611af4565b610b52565b600191505092915050565b6000610928610921610b4a565b8484610d1d565b6001905092915050565b6000600560003373ffffffffffffffffffffffffffffffffffffffff1673ffffffffffffffffffffffffffffffffffffffff1681526020019081526020016000205414156109bd5743600560003373ffffffffffffffffffffffffffffffffffffffff1673ffffffffffffffffffffffffffffffffffffffff16815260200190815260200160002050505b6109c633610f9c565b600660009054906101000a900473ffffffffffffffffffffffffffffffffffffffff1673ffffffffffffffffffffffffffffffffffffffff166323b872dd3330846040518463ffffffff1660e01b8152600401610a25939291906117bf565b602060405180830381600087803b158015610a3f57600080fd5b505af1158015610a53573d6000803e3d6000fd5b505050506040513d601f19601f82011682018060405250810190610a779190611559565b50610a8233826112d1565b50565b60056020528060005260406000206000915090505481565b6000600160008473ffffffffffffffffffffffffffffffffffffffff1673ffffffffffffffffffffffffffffffffffffffff16815260200190815260200160002060008373ffffffffffffffffffffffffffffffffffffffff1673ffffffffffffffffffffffffffffffffffffffff16815260200190815260200160002054905092915050565b600760009054906101000a900473ffffffffffffffffffffffffffffffffffffffff1681565b600033905090565b600073ffffffffffffffffffffffffffffffffffffffff168373ffffffffffffffffffffffffffffffffffffffff161415610bc2576040517f08c379a0000000000000000000000000000000000000000000000000000000008152600401610bb990611992565b60405180910390fd5b600073ffffffffffffffffffffffffffffffffffffffff168273ffffffffffffffffffffffffffffffffffffffff161415610c32576040517f08c379a0000000000000000000000000000000000000000000000000000000008152600401610c29906118d2565b60405180910390fd5b80600160008573ffffffffffffffffffffffffffffffffffffffff1673ffffffffffffffffffffffffffffffffffffffff16815260200190815260200160002060008473ffffffffffffffffffffffffffffffffffffffff1673ffffffffffffffffffffffffffffffffffffffff168152602001908152602001600020819055508173ffffffffffffffffffffffffffffffffffffffff168373ffffffffffffffffffffffffffffffffffffffff167f8c5be1e5ebec7d5bd14f71427d1e84f3dd0314c0f7b2291e5b200ac8c7c3b92583604051610d1091906119f2565b60405180910390a3505050565b600073ffffffffffffffffffffffffffffffffffffffff168373ffffffffffffffffffffffffffffffffffffffff161415610d8d576040517f08c379a0000000000000000000000000000000000000000000000000000000008152600401610d8490611972565b60405180910390fd5b600073ffffffffffffffffffffffffffffffffffffffff168273ffffffffffffffffffffffffffffffffffffffff161415610dfd576040517f08c379a0000000000000000000000000000000000000000000000000000000008152600401610df490611892565b60405180910390fd5b610e08838383611425565b60008060008573ffffffffffffffffffffffffffffffffffffffff1673ffffffffffffffffffffffffffffffffffffffff16815260200190815260200160002054905081811015610e8e576040517f08c379a0000000000000000000000000000000000000000000000000000000008152600401610e85906118f2565b60405180910390fd5b8181610e9a9190611af4565b6000808673ffffffffffffffffffffffffffffffffffffffff1673ffffffffffffffffffffffffffffffffffffffff16815260200190815260200160002081905550816000808573ffffffffffffffffffffffffffffffffffffffff1673ffffffffffffffffffffffffffffffffffffffff1681526020019081526020016000206000828254610f2a9190611a44565b925050819055508273ffffffffffffffffffffffffffffffffffffffff168473ffffffffffffffffffffffffffffffffffffffff167fddf252ad1be2c89b69c2b068fc378daa952ba7f163c4a11628f55a4df523b3ef84604051610f8e91906119f2565b60405180910390a350505050565b6000600560008373ffffffffffffffffffffffffffffffffffffffff1673ffffffffffffffffffffffffffffffffffffffff16815260200190815260200160002054905060008143610fee9190611af4565b905060008111156110f857600061100484610741565b90506000600183836110169190611a9a565b6110209190611a9a565b9050600760009054906101000a900473ffffffffffffffffffffffffffffffffffffffff1673ffffffffffffffffffffffffffffffffffffffff166340c10f1986836040518363ffffffff1660e01b815260040161107f9291906117f6565b600060405180830381600087803b15801561109957600080fd5b505af11580156110ad573d6000803e3d6000fd5b5050505043600560008773ffffffffffffffffffffffffffffffffffffffff1673ffffffffffffffffffffffffffffffffffffffff1681526020019081526020016000208190555050505b505050565b600073ffffffffffffffffffffffffffffffffffffffff168273ffffffffffffffffffffffffffffffffffffffff16141561116d576040517f08c379a000000000000000000000000000000000000000000000000000000000815260040161116490611952565b60405180910390fd5b61117982600083611425565b60008060008473ffffffffffffffffffffffffffffffffffffffff1673ffffffffffffffffffffffffffffffffffffffff168152602001908152602001600020549050818110156111ff576040517f08c379a00000000000000000000000000000000000000000000000000000000081526004016111f6906118b2565b60405180910390fd5b818161120b9190611af4565b6000808573ffffffffffffffffffffffffffffffffffffffff1673ffffffffffffffffffffffffffffffffffffffff16815260200190815260200160002081905550816002600082825461125f9190611af4565b92505081905550600073ffffffffffffffffffffffffffffffffffffffff168373ffffffffffffffffffffffffffffffffffffffff167fddf252ad1be2c89b69c2b068fc378daa952ba7f163c4a11628f55a4df523b3ef846040516112c491906119f2565b60405180910390a3505050565b600073ffffffffffffffffffffffffffffffffffffffff168273ffffffffffffffffffffffffffffffffffffffff161415611341576040517f08c379a0000000000000000000000000000000000000000000000000000000008152600401611338906119d2565b60405180910390fd5b61134d60008383611425565b806002600082825461135f9190611a44565b92505081905550806000808473ffffffffffffffffffffffffffffffffffffffff1673ffffffffffffffffffffffffffffffffffffffff16815260200190815260200160002060008282546113b49190611a44565b925050819055508173ffffffffffffffffffffffffffffffffffffffff16600073ffffffffffffffffffffffffffffffffffffffff167fddf252ad1be2c89b69c2b068fc378daa952ba7f163c4a11628f55a4df523b3ef8360405161141991906119f2565b60405180910390a35050565b505050565b60008135905061143981611fb2565b92915050565b60008151905061144e81611fc9565b92915050565b60008135905061146381611fe0565b92915050565b60006020828403121561147b57600080fd5b60006114898482850161142a565b91505092915050565b600080604083850312156114a557600080fd5b60006114b38582860161142a565b92505060206114c48582860161142a565b9150509250929050565b6000806000606084860312156114e357600080fd5b60006114f18682870161142a565b93505060206115028682870161142a565b925050604061151386828701611454565b9150509250925092565b6000806040838503121561153057600080fd5b600061153e8582860161142a565b925050602061154f85828601611454565b9150509250929050565b60006020828403121561156b57600080fd5b60006115798482850161143f565b91505092915050565b60006020828403121561159457600080fd5b60006115a284828501611454565b91505092915050565b6115b481611b28565b82525050565b6115c381611b3a565b82525050565b6115d281611b7d565b82525050565b6115e181611ba1565b82525050565b60006115f282611a28565b6115fc8185611a33565b935061160c818560208601611bc5565b61161581611c88565b840191505092915050565b600061162d602383611a33565b915061163882611c99565b604082019050919050565b6000611650602283611a33565b915061165b82611ce8565b604082019050919050565b6000611673602283611a33565b915061167e82611d37565b604082019050919050565b6000611696602683611a33565b91506116a182611d86565b604082019050919050565b60006116b9601383611a33565b91506116c482611dd5565b602082019050919050565b60006116dc602883611a33565b91506116e782611dfe565b604082019050919050565b60006116ff602183611a33565b915061170a82611e4d565b604082019050919050565b6000611722602583611a33565b915061172d82611e9c565b604082019050919050565b6000611745602483611a33565b915061175082611eeb565b604082019050919050565b6000611768602583611a33565b915061177382611f3a565b604082019050919050565b600061178b601f83611a33565b915061179682611f89565b602082019050919050565b6117aa81611b66565b82525050565b6117b981611b70565b82525050565b60006060820190506117d460008301866115ab565b6117e160208301856115ab565b6117ee60408301846117a1565b949350505050565b600060408201905061180b60008301856115ab565b61181860208301846117a1565b9392505050565b600060208201905061183460008301846115ba565b92915050565b600060208201905061184f60008301846115c9565b92915050565b600060208201905061186a60008301846115d8565b92915050565b6000602082019050818103600083015261188a81846115e7565b905092915050565b600060208201905081810360008301526118ab81611620565b9050919050565b600060208201905081810360008301526118cb81611643565b9050919050565b600060208201905081810360008301526118eb81611666565b9050919050565b6000602082019050818103600083015261190b81611689565b9050919050565b6000602082019050818103600083015261192b816116ac565b9050919050565b6000602082019050818103600083015261194b816116cf565b9050919050565b6000602082019050818103600083015261196b816116f2565b9050919050565b6000602082019050818103600083015261198b81611715565b9050919050565b600060208201905081810360008301526119ab81611738565b9050919050565b600060208201905081810360008301526119cb8161175b565b9050919050565b600060208201905081810360008301526119eb8161177e565b9050919050565b6000602082019050611a0760008301846117a1565b92915050565b6000602082019050611a2260008301846117b0565b92915050565b600081519050919050565b600082825260208201905092915050565b6000611a4f82611b66565b9150611a5a83611b66565b9250827fffffffffffffffffffffffffffffffffffffffffffffffffffffffffffffffff03821115611a8f57611a8e611c2a565b5b828201905092915050565b6000611aa582611b66565b9150611ab083611b66565b9250817fffffffffffffffffffffffffffffffffffffffffffffffffffffffffffffffff0483118215151615611ae957611ae8611c2a565b5b828202905092915050565b6000611aff82611b66565b9150611b0a83611b66565b925082821015611b1d57611b1c611c2a565b5b828203905092915050565b6000611b3382611b46565b9050919050565b60008115159050919050565b600073ffffffffffffffffffffffffffffffffffffffff82169050919050565b6000819050919050565b600060ff82169050919050565b6000611b8882611b8f565b9050919050565b6000611b9a82611b46565b9050919050565b6000611bac82611bb3565b9050919050565b6000611bbe82611b46565b9050919050565b60005b83811015611be3578082015181840152602081019050611bc8565b83811115611bf2576000848401525b50505050565b60006002820490506001821680611c1057607f821691505b60208210811415611c2457611c23611c59565b5b50919050565b7f4e487b7100000000000000000000000000000000000000000000000000000000600052601160045260246000fd5b7f4e487b7100000000000000000000000000000000000000000000000000000000600052602260045260246000fd5b6000601f19601f8301169050919050565b7f45524332303a207472616e7366657220746f20746865207a65726f206164647260008201527f6573730000000000000000000000000000000000000000000000000000000000602082015250565b7f45524332303a206275726e20616d6f756e7420657863656564732062616c616e60008201527f6365000000000000000000000000000000000000000000000000000000000000602082015250565b7f45524332303a20617070726f766520746f20746865207a65726f20616464726560008201527f7373000000000000000000000000000000000000000000000000000000000000602082015250565b7f45524332303a207472616e7366657220616d6f756e742065786365656473206260008201527f616c616e63650000000000000000000000000000000000000000000000000000602082015250565b7f6e6f7420656e6f756768206c7020746f6b656e00000000000000000000000000600082015250565b7f45524332303a207472616e7366657220616d6f756e742065786365656473206160008201527f6c6c6f77616e6365000000000000000000000000000000000000000000000000602082015250565b7f45524332303a206275726e2066726f6d20746865207a65726f2061646472657360008201527f7300000000000000000000000000000000000000000000000000000000000000602082015250565b7f45524332303a207472616e736665722066726f6d20746865207a65726f20616460008201527f6472657373000000000000000000000000000000000000000000000000000000602082015250565b7f45524332303a20617070726f76652066726f6d20746865207a65726f2061646460008201527f7265737300000000000000000000000000000000000000000000000000000000602082015250565b7f45524332303a2064656372656173656420616c6c6f77616e63652062656c6f7760008201527f207a65726f000000000000000000000000000000000000000000000000000000602082015250565b7f45524332303a206d696e7420746f20746865207a65726f206164647265737300600082015250565b611fbb81611b28565b8114611fc657600080fd5b50565b611fd281611b3a565b8114611fdd57600080fd5b50565b611fe981611b66565b8114611ff457600080fd5b5056fea2646970667358221220089d8d9a3841cb84d74c5f91d4e08de3b13bc0d268b7924482bca110057b5ce564736f6c63430008040033",
  "immutableReferences": {},
  "source": "// SPDX-License-Identifier: MIT\npragma solidity ^0.8.0;\n\nimport './GovernanceToken.sol';\nimport './LiquidityToken.sol';\nimport './UnderlyingToken.sol';\n\ncontract LiquidityPool is LiquidityToken {\n\n    // keep track when deposits for reward calculations (which blocks changes happened)\n    mapping(address => uint) public checkpoints;\n\n    UnderlyingToken public underlyingToken;\n    GovernanceToken  public governanceToken;\n\n    // reward per Block \n    uint constant public REWARD_PER_BLOCK = 1;\n\n    constructor(\n        address _underlyingToken,\n        address _governanceToken\n    ) \n    {\n        governanceToken = GovernanceToken(_governanceToken);\n        underlyingToken = UnderlyingToken(_underlyingToken);\n    }\n\n    /// @notice \n    /// @param _beneficiary the address to receive rewards\n    function _distributeRewards(address _beneficiary) internal {\n        uint points = checkpoints[_beneficiary];\n        uint numBlocks = block.number - points;\n        if(numBlocks > 0) {\n            // simplify to 1:1 ratio\n            uint lpToken = balanceOf(_beneficiary);\n            // calculate number of Governance Tokens to give per block\n            uint reward = lpToken * numBlocks * REWARD_PER_BLOCK;\n            // LiquidityPool is owner of Governance Token so can mint to reward \n            governanceToken.mint(_beneficiary,reward);\n            checkpoints[_beneficiary] = block.number;\n        }\n    }\n\n    /// @notice deposit underlyingTokens to get LiqudityToken and gain rewards Governance Tokens\n    /// @param _amountUnderlyingTokens the amount of underlyingTokens to deposit\n    function deposit(uint _amountUnderlyingTokens) external {\n        if(checkpoints[msg.sender] == 0) {\n            checkpoints[msg.sender] == block.number;\n        }\n        _distributeRewards(msg.sender);\n        // approve needs to have been called on the liquidity pool\n        underlyingToken.transferFrom(msg.sender, address(this), _amountUnderlyingTokens);\n        // Liquidity pool will give Liquidity Tokens to investor in ratio here 1:1 for simplicity\n        _mint(msg.sender, _amountUnderlyingTokens);\n    }\n\n    /// @notice redeem lpTokens to get back your underlyingTokens\n    /// @param _amountLPTokens) the amount of lpTokens to redeem\n    function withdraw(uint _amountLPTokens) external {\n        require(balanceOf(msg.sender) >= _amountLPTokens, 'not enough lp token');\n        _distributeRewards(msg.sender);\n        underlyingToken.transfer(msg.sender, _amountLPTokens);\n        _burn(msg.sender, _amountLPTokens);\n    }\n\n}",
  "sourcePath": "/Users/zed/Desktop/liquidityMining/contracts/LiquidityPool.sol",
  "compiler": {
    "name": "solc",
    "version": "0.8.4+commit.c7e474f2.Emscripten.clang"
  },
  "schemaVersion": "3.3.4",
  "updatedAt": "2021-05-04T04:47:46.536Z",
  "devdoc": {
    "kind": "dev",
    "methods": {
      "allowance(address,address)": {
        "details": "See {IERC20-allowance}."
      },
      "approve(address,uint256)": {
        "details": "See {IERC20-approve}. Requirements: - `spender` cannot be the zero address."
      },
      "balanceOf(address)": {
        "details": "See {IERC20-balanceOf}."
      },
      "decimals()": {
        "details": "Returns the number of decimals used to get its user representation. For example, if `decimals` equals `2`, a balance of `505` tokens should be displayed to a user as `5,05` (`505 / 10 ** 2`). Tokens usually opt for a value of 18, imitating the relationship between Ether and Wei. This is the value {ERC20} uses, unless this function is overridden; NOTE: This information is only used for _display_ purposes: it in no way affects any of the arithmetic of the contract, including {IERC20-balanceOf} and {IERC20-transfer}."
      },
      "decreaseAllowance(address,uint256)": {
        "details": "Atomically decreases the allowance granted to `spender` by the caller. This is an alternative to {approve} that can be used as a mitigation for problems described in {IERC20-approve}. Emits an {Approval} event indicating the updated allowance. Requirements: - `spender` cannot be the zero address. - `spender` must have allowance for the caller of at least `subtractedValue`."
      },
      "deposit(uint256)": {
        "params": {
          "_amountUnderlyingTokens": "the amount of underlyingTokens to deposit"
        }
      },
      "increaseAllowance(address,uint256)": {
        "details": "Atomically increases the allowance granted to `spender` by the caller. This is an alternative to {approve} that can be used as a mitigation for problems described in {IERC20-approve}. Emits an {Approval} event indicating the updated allowance. Requirements: - `spender` cannot be the zero address."
      },
      "name()": {
        "details": "Returns the name of the token."
      },
      "symbol()": {
        "details": "Returns the symbol of the token, usually a shorter version of the name."
      },
      "totalSupply()": {
        "details": "See {IERC20-totalSupply}."
      },
      "transfer(address,uint256)": {
        "details": "See {IERC20-transfer}. Requirements: - `recipient` cannot be the zero address. - the caller must have a balance of at least `amount`."
      },
      "transferFrom(address,address,uint256)": {
        "details": "See {IERC20-transferFrom}. Emits an {Approval} event indicating the updated allowance. This is not required by the EIP. See the note at the beginning of {ERC20}. Requirements: - `sender` and `recipient` cannot be the zero address. - `sender` must have a balance of at least `amount`. - the caller must have allowance for ``sender``'s tokens of at least `amount`."
      },
      "withdraw(uint256)": {
        "params": {
          "_amountLPTokens": ") the amount of lpTokens to redeem"
        }
      }
    },
    "version": 1
  },
  "userdoc": {
    "kind": "user",
    "methods": {
      "deposit(uint256)": {
        "notice": "deposit underlyingTokens to get LiqudityToken and gain rewards Governance Tokens"
      },
      "withdraw(uint256)": {
        "notice": "redeem lpTokens to get back your underlyingTokens"
      }
    },
    "version": 1
  }
}